{
  "contractName": "wallet",
  "abi": [
    {
      "inputs": [
        {
          "internalType": "uint256",
          "name": "_quorum",
          "type": "uint256"
        },
        {
          "internalType": "address[]",
          "name": "_approvers",
          "type": "address[]"
        }
      ],
      "stateMutability": "nonpayable",
      "type": "constructor"
    },
    {
      "anonymous": false,
      "inputs": [
        {
          "indexed": true,
          "internalType": "uint256",
          "name": "id",
          "type": "uint256"
        },
        {
          "indexed": true,
          "internalType": "address",
          "name": "to",
          "type": "address"
        },
        {
          "indexed": false,
          "internalType": "uint256",
          "name": "amount",
          "type": "uint256"
        },
        {
          "indexed": false,
          "internalType": "uint256",
          "name": "date",
          "type": "uint256"
        }
      ],
      "name": "EthTransfer",
      "type": "event"
    },
    {
      "anonymous": false,
      "inputs": [
        {
          "components": [
            {
              "internalType": "uint256",
              "name": "id",
              "type": "uint256"
            },
            {
              "internalType": "address",
              "name": "token",
              "type": "address"
            },
            {
              "internalType": "address",
              "name": "to",
              "type": "address"
            },
            {
              "internalType": "uint256",
              "name": "amount",
              "type": "uint256"
            },
            {
              "internalType": "uint256",
              "name": "noOfApprovals",
              "type": "uint256"
            },
            {
              "internalType": "uint256",
              "name": "date",
              "type": "uint256"
            },
            {
              "internalType": "bool",
              "name": "sent",
              "type": "bool"
            }
          ],
          "indexed": false,
          "internalType": "struct wallet.Transfer",
          "name": "transfer",
          "type": "tuple"
        }
      ],
      "name": "EthTransferCreated",
      "type": "event"
    },
    {
      "anonymous": false,
      "inputs": [
        {
          "indexed": true,
          "internalType": "address",
          "name": "sender",
          "type": "address"
        },
        {
          "indexed": false,
          "internalType": "uint256",
          "name": "value",
          "type": "uint256"
        },
        {
          "indexed": false,
          "internalType": "uint256",
          "name": "time",
          "type": "uint256"
        }
      ],
      "name": "EtherDeposit",
      "type": "event"
    },
    {
      "anonymous": false,
      "inputs": [
        {
          "indexed": true,
          "internalType": "address",
          "name": "token",
          "type": "address"
        },
        {
          "indexed": true,
          "internalType": "address",
          "name": "sender",
          "type": "address"
        },
        {
          "indexed": false,
          "internalType": "uint256",
          "name": "value",
          "type": "uint256"
        },
        {
          "indexed": false,
          "internalType": "uint256",
          "name": "time",
          "type": "uint256"
        }
      ],
      "name": "TokenDeposit",
      "type": "event"
    },
    {
      "anonymous": false,
      "inputs": [
        {
          "indexed": true,
          "internalType": "uint256",
          "name": "id",
          "type": "uint256"
        },
        {
          "indexed": true,
          "internalType": "address",
          "name": "token",
          "type": "address"
        },
        {
          "indexed": true,
          "internalType": "address",
          "name": "to",
          "type": "address"
        },
        {
          "indexed": false,
          "internalType": "uint256",
          "name": "amount",
          "type": "uint256"
        },
        {
          "indexed": false,
          "internalType": "uint256",
          "name": "date",
          "type": "uint256"
        }
      ],
      "name": "TokenTransfer",
      "type": "event"
    },
    {
      "anonymous": false,
      "inputs": [
        {
          "components": [
            {
              "internalType": "uint256",
              "name": "id",
              "type": "uint256"
            },
            {
              "internalType": "address",
              "name": "token",
              "type": "address"
            },
            {
              "internalType": "address",
              "name": "to",
              "type": "address"
            },
            {
              "internalType": "uint256",
              "name": "amount",
              "type": "uint256"
            },
            {
              "internalType": "uint256",
              "name": "noOfApprovals",
              "type": "uint256"
            },
            {
              "internalType": "uint256",
              "name": "date",
              "type": "uint256"
            },
            {
              "internalType": "bool",
              "name": "sent",
              "type": "bool"
            }
          ],
          "indexed": false,
          "internalType": "struct wallet.Transfer",
          "name": "transfer",
          "type": "tuple"
        }
      ],
      "name": "TokenTransferCreated",
      "type": "event"
    },
    {
      "inputs": [
        {
          "internalType": "address",
          "name": "",
          "type": "address"
        },
        {
          "internalType": "uint256",
          "name": "",
          "type": "uint256"
        }
      ],
      "name": "approved",
      "outputs": [
        {
          "internalType": "bool",
          "name": "",
          "type": "bool"
        }
      ],
      "stateMutability": "view",
      "type": "function",
      "constant": true
    },
    {
      "inputs": [
        {
          "internalType": "uint256",
          "name": "",
          "type": "uint256"
        }
      ],
      "name": "approvers",
      "outputs": [
        {
          "internalType": "address",
          "name": "",
          "type": "address"
        }
      ],
      "stateMutability": "view",
      "type": "function",
      "constant": true
    },
    {
      "inputs": [],
      "name": "quorum",
      "outputs": [
        {
          "internalType": "uint256",
          "name": "",
          "type": "uint256"
        }
      ],
      "stateMutability": "view",
      "type": "function",
      "constant": true
    },
    {
      "inputs": [
        {
          "internalType": "uint256",
          "name": "",
          "type": "uint256"
        }
      ],
      "name": "transfers",
      "outputs": [
        {
          "internalType": "uint256",
          "name": "id",
          "type": "uint256"
        },
        {
          "internalType": "address",
          "name": "token",
          "type": "address"
        },
        {
          "internalType": "address",
          "name": "to",
          "type": "address"
        },
        {
          "internalType": "uint256",
          "name": "amount",
          "type": "uint256"
        },
        {
          "internalType": "uint256",
          "name": "noOfApprovals",
          "type": "uint256"
        },
        {
          "internalType": "uint256",
          "name": "date",
          "type": "uint256"
        },
        {
          "internalType": "bool",
          "name": "sent",
          "type": "bool"
        }
      ],
      "stateMutability": "view",
      "type": "function",
      "constant": true
    },
    {
      "stateMutability": "payable",
      "type": "receive",
      "payable": true
    },
    {
      "inputs": [
        {
          "internalType": "address",
          "name": "token",
          "type": "address"
        },
        {
          "internalType": "uint256",
          "name": "amount",
          "type": "uint256"
        }
      ],
      "name": "deposit",
      "outputs": [
        {
          "internalType": "bool",
          "name": "",
          "type": "bool"
        }
      ],
      "stateMutability": "nonpayable",
      "type": "function"
    },
    {
      "inputs": [
        {
          "internalType": "address payable",
          "name": "to",
          "type": "address"
        },
        {
          "internalType": "uint256",
          "name": "amount",
          "type": "uint256"
        }
      ],
      "name": "createEthTransfer",
      "outputs": [],
      "stateMutability": "nonpayable",
      "type": "function"
    },
    {
      "inputs": [
        {
          "internalType": "address",
          "name": "token",
          "type": "address"
        },
        {
          "internalType": "address payable",
          "name": "to",
          "type": "address"
        },
        {
          "internalType": "uint256",
          "name": "amount",
          "type": "uint256"
        }
      ],
      "name": "createTokenTransfer",
      "outputs": [],
      "stateMutability": "nonpayable",
      "type": "function"
    },
    {
      "inputs": [
        {
          "internalType": "uint256",
          "name": "id",
          "type": "uint256"
        }
      ],
      "name": "approveTransfer",
      "outputs": [],
      "stateMutability": "nonpayable",
      "type": "function"
    },
    {
      "inputs": [],
      "name": "getEthBalance",
      "outputs": [
        {
          "internalType": "uint256",
          "name": "",
          "type": "uint256"
        }
      ],
      "stateMutability": "view",
      "type": "function",
      "constant": true
    },
    {
      "inputs": [
        {
          "internalType": "address",
          "name": "token",
          "type": "address"
        }
      ],
      "name": "getTokenBalance",
      "outputs": [
        {
          "internalType": "uint256",
          "name": "",
          "type": "uint256"
        }
      ],
      "stateMutability": "view",
      "type": "function",
      "constant": true
    },
    {
      "inputs": [],
      "name": "getTransfers",
      "outputs": [
        {
          "components": [
            {
              "internalType": "uint256",
              "name": "id",
              "type": "uint256"
            },
            {
              "internalType": "address",
              "name": "token",
              "type": "address"
            },
            {
              "internalType": "address",
              "name": "to",
              "type": "address"
            },
            {
              "internalType": "uint256",
              "name": "amount",
              "type": "uint256"
            },
            {
              "internalType": "uint256",
              "name": "noOfApprovals",
              "type": "uint256"
            },
            {
              "internalType": "uint256",
              "name": "date",
              "type": "uint256"
            },
            {
              "internalType": "bool",
              "name": "sent",
              "type": "bool"
            }
          ],
          "internalType": "struct wallet.Transfer[]",
          "name": "",
          "type": "tuple[]"
        }
      ],
      "stateMutability": "view",
      "type": "function",
      "constant": true
    },
    {
      "inputs": [],
      "name": "getApprovers",
      "outputs": [
        {
          "internalType": "address[]",
          "name": "",
          "type": "address[]"
        }
      ],
      "stateMutability": "view",
      "type": "function",
      "constant": true
    },
    {
      "inputs": [
        {
          "internalType": "address",
          "name": "account",
          "type": "address"
        }
      ],
      "name": "isApprover",
      "outputs": [
        {
          "internalType": "bool",
          "name": "",
          "type": "bool"
        }
      ],
      "stateMutability": "view",
      "type": "function",
      "constant": true
    }
  ],
  "bytecode": "0x60a06040523480156200001157600080fd5b5060405162002cb238038062002cb2833981810160405281019062000037919062000225565b80518211156200007e576040517f08c379a00000000000000000000000000000000000000000000000000000000081526004016200007590620002e7565b60405180910390fd5b806001908051906020019062000096929190620000a7565b50816080818152505050506200041e565b82805482825590600052602060002090810192821562000123579160200282015b82811115620001225782518260006101000a81548173ffffffffffffffffffffffffffffffffffffffff021916908373ffffffffffffffffffffffffffffffffffffffff16021790555091602001919060010190620000c8565b5b50905062000132919062000136565b5090565b5b808211156200015157600081600090555060010162000137565b5090565b60006200016c62000166846200033d565b62000309565b905080838252602082019050828560208602820111156200018c57600080fd5b60005b85811015620001c05781620001a58882620001ca565b8452602084019350602083019250506001810190506200018f565b5050509392505050565b600081519050620001db81620003ea565b92915050565b600082601f830112620001f357600080fd5b81516200020584826020860162000155565b91505092915050565b6000815190506200021f8162000404565b92915050565b600080604083850312156200023957600080fd5b600062000249858286016200020e565b925050602083015167ffffffffffffffff8111156200026757600080fd5b6200027585828601620001e1565b9150509250929050565b60006200028e602a836200036c565b91507f51756f72756d2073686f756c64206265206c657373207468616e206e6f206f6660008301527f20617070726f76657273000000000000000000000000000000000000000000006020830152604082019050919050565b6000602082019050818103600083015262000302816200027f565b9050919050565b6000604051905081810181811067ffffffffffffffff82111715620003335762000332620003bb565b5b8060405250919050565b600067ffffffffffffffff8211156200035b576200035a620003bb565b5b602082029050602081019050919050565b600082825260208201905092915050565b60006200038a8262000391565b9050919050565b600073ffffffffffffffffffffffffffffffffffffffff82169050919050565b6000819050919050565b7f4e487b7100000000000000000000000000000000000000000000000000000000600052604160045260246000fd5b620003f5816200037d565b81146200040157600080fd5b50565b6200040f81620003b1565b81146200041b57600080fd5b50565b6080516128716200044160003960008181610559015261134901526128716000f3fe6080604052600436106100c65760003560e01c80636d218e481161007f578063a0f0519f11610059578063a0f0519f146102f1578063c14482841461031a578063cacca4a014610357578063d3650fb8146103805761011d565b80636d218e481461024657806370ed0ada146102835780639377d711146102ae5761011d565b806301c0954b146101225780631703a0181461014b5780632f65142c146101765780633aecd0e3146101a157806347e7ef24146101de5780636cb3e8ef1461021b5761011d565b3661011d573373ffffffffffffffffffffffffffffffffffffffff167fd2c7327eeef800b4658eb3cf547280a7aeddf27084024215a8613a19b6a6146e344260405161011392919061253a565b60405180910390a2005b600080fd5b34801561012e57600080fd5b5061014960048036038101906101449190611ba3565b6103bd565b005b34801561015757600080fd5b50610160610557565b60405161016d91906124b0565b60405180910390f35b34801561018257600080fd5b5061018b61057b565b6040516101989190612318565b60405180910390f35b3480156101ad57600080fd5b506101c860048036038101906101c39190611b3e565b6106c9565b6040516101d591906124b0565b60405180910390f35b3480156101ea57600080fd5b5061020560048036038101906102009190611bf2565b61075b565b604051610212919061233a565b60405180910390f35b34801561022757600080fd5b506102306108c9565b60405161023d91906122f6565b60405180910390f35b34801561025257600080fd5b5061026d60048036038101906102689190611b3e565b610957565b60405161027a919061233a565b60405180910390f35b34801561028f57600080fd5b50610298610a2c565b6040516102a591906124b0565b60405180910390f35b3480156102ba57600080fd5b506102d560048036038101906102d09190611c57565b610a34565b6040516102e897969594939291906124cb565b60405180910390f35b3480156102fd57600080fd5b5061031860048036038101906103139190611b67565b610ad3565b005b34801561032657600080fd5b50610341600480360381019061033c9190611bf2565b610be6565b60405161034e919061233a565b60405180910390f35b34801561036357600080fd5b5061037e60048036038101906103799190611c57565b610c15565b005b34801561038c57600080fd5b506103a760048036038101906103a29190611c57565b610e82565b6040516103b4919061227b565b60405180910390f35b600115156103ca33610957565b15151461040c576040517f08c379a0000000000000000000000000000000000000000000000000000000008152600401610403906123f5565b60405180910390fd5b808373ffffffffffffffffffffffffffffffffffffffff166370a08231306040518263ffffffff1660e01b8152600401610446919061227b565b60206040518083038186803b15801561045e57600080fd5b505afa158015610472573d6000803e3d6000fd5b505050506040513d601f19601f820116820180604052508101906104969190611c80565b10156104d7576040517f08c379a00000000000000000000000000000000000000000000000000000000081526004016104ce906123d5565b60405180910390fd5b600073ffffffffffffffffffffffffffffffffffffffff168273ffffffffffffffffffffffffffffffffffffffff161415610547576040517f08c379a000000000000000000000000000000000000000000000000000000000815260040161053e90612435565b60405180910390fd5b610552838383610ec1565b505050565b7f000000000000000000000000000000000000000000000000000000000000000081565b60606000805480602002602001604051908101604052809291908181526020016000905b828210156106c057838290600052602060002090600702016040518060e0016040529081600082015481526020016001820160009054906101000a900473ffffffffffffffffffffffffffffffffffffffff1673ffffffffffffffffffffffffffffffffffffffff1673ffffffffffffffffffffffffffffffffffffffff1681526020016002820160009054906101000a900473ffffffffffffffffffffffffffffffffffffffff1673ffffffffffffffffffffffffffffffffffffffff1673ffffffffffffffffffffffffffffffffffffffff1681526020016003820154815260200160048201548152602001600582015481526020016006820160009054906101000a900460ff1615151515815250508152602001906001019061059f565b50505050905090565b60008173ffffffffffffffffffffffffffffffffffffffff166370a08231306040518263ffffffff1660e01b8152600401610704919061227b565b60206040518083038186803b15801561071c57600080fd5b505afa158015610730573d6000803e3d6000fd5b505050506040513d601f19601f820116820180604052508101906107549190611c80565b9050919050565b600080610767846106c9565b90508373ffffffffffffffffffffffffffffffffffffffff166323b872dd3330866040518463ffffffff1660e01b81526004016107a693929190612296565b602060405180830381600087803b1580156107c057600080fd5b505af11580156107d4573d6000803e3d6000fd5b505050506040513d601f19601f820116820180604052508101906107f89190611c2e565b610837576040517f08c379a000000000000000000000000000000000000000000000000000000000815260040161082e90612375565b60405180910390fd5b600061085482610846876106c9565b61121a90919063ffffffff16565b90503373ffffffffffffffffffffffffffffffffffffffff168573ffffffffffffffffffffffffffffffffffffffff167f4466433a9d9e9d68780a1f6286a07c1c7a0e597fe1af747b4ea79d013628fc9e83426040516108b592919061253a565b60405180910390a360019250505092915050565b6060600180548060200260200160405190810160405280929190818152602001828054801561094d57602002820191906000526020600020905b8160009054906101000a900473ffffffffffffffffffffffffffffffffffffffff1673ffffffffffffffffffffffffffffffffffffffff1681526020019060010190808311610903575b5050505050905090565b600080600090505b600180549050811015610a2157600181815481106109a6577f4e487b7100000000000000000000000000000000000000000000000000000000600052603260045260246000fd5b9060005260206000200160009054906101000a900473ffffffffffffffffffffffffffffffffffffffff1673ffffffffffffffffffffffffffffffffffffffff168373ffffffffffffffffffffffffffffffffffffffff161415610a0e576001915050610a27565b8080610a199061275a565b91505061095f565b50600090505b919050565b600047905090565b60008181548110610a4457600080fd5b90600052602060002090600702016000915090508060000154908060010160009054906101000a900473ffffffffffffffffffffffffffffffffffffffff16908060020160009054906101000a900473ffffffffffffffffffffffffffffffffffffffff16908060030154908060040154908060050154908060060160009054906101000a900460ff16905087565b60011515610ae033610957565b151514610b22576040517f08c379a0000000000000000000000000000000000000000000000000000000008152600401610b19906123f5565b60405180910390fd5b80471015610b65576040517f08c379a0000000000000000000000000000000000000000000000000000000008152600401610b5c90612395565b60405180910390fd5b600073ffffffffffffffffffffffffffffffffffffffff168273ffffffffffffffffffffffffffffffffffffffff161415610bd5576040517f08c379a0000000000000000000000000000000000000000000000000000000008152600401610bcc90612435565b60405180910390fd5b610be261dead8383610ec1565b5050565b60026020528160005260406000206020528060005260406000206000915091509054906101000a900460ff1681565b60011515610c2233610957565b151514610c64576040517f08c379a0000000000000000000000000000000000000000000000000000000008152600401610c5b906123f5565b60405180910390fd5b600073ffffffffffffffffffffffffffffffffffffffff1660008281548110610cb6577f4e487b7100000000000000000000000000000000000000000000000000000000600052603260045260246000fd5b906000526020600020906007020160020160009054906101000a900473ffffffffffffffffffffffffffffffffffffffff1673ffffffffffffffffffffffffffffffffffffffff161415610d3f576040517f08c379a0000000000000000000000000000000000000000000000000000000008152600401610d3690612355565b60405180910390fd5b600260003373ffffffffffffffffffffffffffffffffffffffff1673ffffffffffffffffffffffffffffffffffffffff168152602001908152602001600020600082815260200190815260200160002060009054906101000a900460ff1615610ddd576040517f08c379a0000000000000000000000000000000000000000000000000000000008152600401610dd490612475565b60405180910390fd5b60008181548110610e17577f4e487b7100000000000000000000000000000000000000000000000000000000600052603260045260246000fd5b906000526020600020906007020160060160009054906101000a900460ff1615610e76576040517f08c379a0000000000000000000000000000000000000000000000000000000008152600401610e6d90612415565b60405180910390fd5b610e7f81611230565b50565b60018181548110610e9257600080fd5b906000526020600020016000915054906101000a900473ffffffffffffffffffffffffffffffffffffffff1681565b60006040518060e0016040528060008054905081526020018573ffffffffffffffffffffffffffffffffffffffff1681526020018473ffffffffffffffffffffffffffffffffffffffff168152602001838152602001600181526020014281526020016000151581525090806001815401808255809150506001900390600052602060002090600702016000909190919091506000820151816000015560208201518160010160006101000a81548173ffffffffffffffffffffffffffffffffffffffff021916908373ffffffffffffffffffffffffffffffffffffffff16021790555060408201518160020160006101000a81548173ffffffffffffffffffffffffffffffffffffffff021916908373ffffffffffffffffffffffffffffffffffffffff160217905550606082015181600301556080820151816004015560a0820151816005015560c08201518160060160006101000a81548160ff02191690831515021790555050506001600260003373ffffffffffffffffffffffffffffffffffffffff1673ffffffffffffffffffffffffffffffffffffffff1681526020019081526020016000206000611088600160008054905061121a90919063ffffffff16565b815260200190815260200160002060006101000a81548160ff02191690831515021790555061dead73ffffffffffffffffffffffffffffffffffffffff168373ffffffffffffffffffffffffffffffffffffffff16141561117e577f40985da971f4ab77e86d35fdcb342d5fbb5c28253d176634a90ca8b52244ceab600061111f600160008054905061121a90919063ffffffff16565b81548110611156577f4e487b7100000000000000000000000000000000000000000000000000000000600052603260045260246000fd5b90600052602060002090600702016040516111719190612495565b60405180910390a1611215565b7fc6e54da4e65a62608893e27892d7222311bc8024d52a379c554158614c3a9f1560006111ba600160008054905061121a90919063ffffffff16565b815481106111f1577f4e487b7100000000000000000000000000000000000000000000000000000000600052603260045260246000fd5b906000526020600020906007020160405161120c9190612495565b60405180910390a15b505050565b600081836112289190612647565b905092915050565b6001600260003373ffffffffffffffffffffffffffffffffffffffff1673ffffffffffffffffffffffffffffffffffffffff168152602001908152602001600020600083815260200190815260200160002060006101000a81548160ff0219169083151502179055506112f86001600083815481106112d8577f4e487b7100000000000000000000000000000000000000000000000000000000600052603260045260246000fd5b9060005260206000209060070201600401546114da90919063ffffffff16565b60008281548110611332577f4e487b7100000000000000000000000000000000000000000000000000000000600052603260045260246000fd5b9060005260206000209060070201600401819055507f0000000000000000000000000000000000000000000000000000000000000000600082815481106113a2577f4e487b7100000000000000000000000000000000000000000000000000000000600052603260045260246000fd5b906000526020600020906007020160040154106114d7576001600082815481106113f5577f4e487b7100000000000000000000000000000000000000000000000000000000600052603260045260246000fd5b906000526020600020906007020160060160006101000a81548160ff02191690831515021790555061dead73ffffffffffffffffffffffffffffffffffffffff1660008281548110611470577f4e487b7100000000000000000000000000000000000000000000000000000000600052603260045260246000fd5b906000526020600020906007020160010160009054906101000a900473ffffffffffffffffffffffffffffffffffffffff1673ffffffffffffffffffffffffffffffffffffffff1614156114cc576114c7816114f0565b6114d6565b6114d58161175c565b5b5b50565b600081836114e891906125f1565b905092915050565b600080828154811061152b577f4e487b7100000000000000000000000000000000000000000000000000000000600052603260045260246000fd5b906000526020600020906007020160020160009054906101000a900473ffffffffffffffffffffffffffffffffffffffff1673ffffffffffffffffffffffffffffffffffffffff16600083815481106115ad577f4e487b7100000000000000000000000000000000000000000000000000000000600052603260045260246000fd5b9060005260206000209060070201600301546040516115cb90612266565b60006040518083038185875af1925050503d8060008114611608576040519150601f19603f3d011682016040523d82523d6000602084013e61160d565b606091505b5050905080611651576040517f08c379a0000000000000000000000000000000000000000000000000000000008152600401611648906123b5565b60405180910390fd5b6000828154811061168b577f4e487b7100000000000000000000000000000000000000000000000000000000600052603260045260246000fd5b906000526020600020906007020160020160009054906101000a900473ffffffffffffffffffffffffffffffffffffffff1673ffffffffffffffffffffffffffffffffffffffff16827fac7640b8921b40151891175fedaf09041d6618f8aa9d4f46b21e8846d7428f5b6000858154811061172f577f4e487b7100000000000000000000000000000000000000000000000000000000600052603260045260246000fd5b9060005260206000209060070201600301544260405161175092919061253a565b60405180910390a35050565b60008181548110611796577f4e487b7100000000000000000000000000000000000000000000000000000000600052603260045260246000fd5b906000526020600020906007020160010160009054906101000a900473ffffffffffffffffffffffffffffffffffffffff1673ffffffffffffffffffffffffffffffffffffffff1663a9059cbb6000838154811061181d577f4e487b7100000000000000000000000000000000000000000000000000000000600052603260045260246000fd5b906000526020600020906007020160020160009054906101000a900473ffffffffffffffffffffffffffffffffffffffff1660008481548110611889577f4e487b7100000000000000000000000000000000000000000000000000000000600052603260045260246000fd5b9060005260206000209060070201600301546040518363ffffffff1660e01b81526004016118b89291906122cd565b602060405180830381600087803b1580156118d257600080fd5b505af11580156118e6573d6000803e3d6000fd5b505050506040513d601f19601f8201168201806040525081019061190a9190611c2e565b611949576040517f08c379a000000000000000000000000000000000000000000000000000000000815260040161194090612455565b60405180910390fd5b60008181548110611983577f4e487b7100000000000000000000000000000000000000000000000000000000600052603260045260246000fd5b906000526020600020906007020160020160009054906101000a900473ffffffffffffffffffffffffffffffffffffffff1673ffffffffffffffffffffffffffffffffffffffff1660008281548110611a05577f4e487b7100000000000000000000000000000000000000000000000000000000600052603260045260246000fd5b906000526020600020906007020160010160009054906101000a900473ffffffffffffffffffffffffffffffffffffffff1673ffffffffffffffffffffffffffffffffffffffff16827f11174a7a61fc409b02e19ea402cc9ff597f3615b2fa8c0bacb8cd58c7c6cf20160008581548110611aa9577f4e487b7100000000000000000000000000000000000000000000000000000000600052603260045260246000fd5b90600052602060002090600702016003015442604051611aca92919061253a565b60405180910390a450565b600081359050611ae4816127df565b92915050565b600081359050611af9816127f6565b92915050565b600081519050611b0e8161280d565b92915050565b600081359050611b2381612824565b92915050565b600081519050611b3881612824565b92915050565b600060208284031215611b5057600080fd5b6000611b5e84828501611ad5565b91505092915050565b60008060408385031215611b7a57600080fd5b6000611b8885828601611aea565b9250506020611b9985828601611b14565b9150509250929050565b600080600060608486031215611bb857600080fd5b6000611bc686828701611ad5565b9350506020611bd786828701611aea565b9250506040611be886828701611b14565b9150509250925092565b60008060408385031215611c0557600080fd5b6000611c1385828601611ad5565b9250506020611c2485828601611b14565b9150509250929050565b600060208284031215611c4057600080fd5b6000611c4e84828501611aff565b91505092915050565b600060208284031215611c6957600080fd5b6000611c7784828501611b14565b91505092915050565b600060208284031215611c9257600080fd5b6000611ca084828501611b29565b91505092915050565b6000611cb58383611cd9565b60208301905092915050565b6000611ccd83836120dd565b60e08301905092915050565b611ce2816126b2565b82525050565b611cf1816126b2565b82525050565b6000611d0282612583565b611d0c81856125b3565b9350611d1783612563565b8060005b83811015611d48578151611d2f8882611ca9565b9750611d3a83612599565b925050600181019050611d1b565b5085935050505092915050565b6000611d608261258e565b611d6a81856125c4565b9350611d7583612573565b8060005b83811015611da6578151611d8d8882611cc1565b9750611d98836125a6565b925050600181019050611d79565b5085935050505092915050565b611dbc816126d6565b82525050565b611dcb816126d6565b82525050565b6000611dde6016836125e0565b91507f5472616e7366657220646f65736e2774206578697374000000000000000000006000830152602082019050919050565b6000611e1e600f836125e0565b91507f5472616e73666572206661696c656400000000000000000000000000000000006000830152602082019050919050565b6000611e5e6028836125e0565b91507f496e73756666696369656e74204574682062616c616e636520696e207468652060008301527f636f6e74726163740000000000000000000000000000000000000000000000006020830152604082019050919050565b6000611ec46013836125e0565b91507f457468207472616e73666572206661696c6564000000000000000000000000006000830152602082019050919050565b6000611f04602b836125e0565b91507f496e73756666696369656e7420616d6f756e74206f6620746f6b656e7320696e60008301527f207468652077616c6c65740000000000000000000000000000000000000000006020830152604082019050919050565b6000611f6a6024836125e0565b91507f4f6e6c7920617070726f7665722063616e2063616c6c20746869732066756e6360008301527f74696f6e000000000000000000000000000000000000000000000000000000006020830152604082019050919050565b6000611fd06015836125e0565b91507f5472616e7366657220616c72656164792073656e7400000000000000000000006000830152602082019050919050565b60006120106000836125d5565b9150600082019050919050565b600061202a6019836125e0565b91507f61646472657373283029206973206e6f7420616c6c6f776564000000000000006000830152602082019050919050565b600061206a6016836125e0565b91507f546f6b656e207472616e73666572206661696c757265000000000000000000006000830152602082019050919050565b60006120aa6017836125e0565b91507f416c726561647920617070726f76656420627920796f750000000000000000006000830152602082019050919050565b60e0820160008201516120f36000850182612248565b5060208201516121066020850182611cd9565b5060408201516121196040850182611cd9565b50606082015161212c6060850182612248565b50608082015161213f6080850182612248565b5060a082015161215260a0850182612248565b5060c082015161216560c0850182611db3565b50505050565b60e08201600080830154905061218081612740565b61218d6000860182612248565b506001830154905061219e8161270c565b6121ab6020860182611cd9565b50600283015490506121bc8161270c565b6121c96040860182611cd9565b50600383015490506121da81612740565b6121e76060860182612248565b50600483015490506121f881612740565b6122056080860182612248565b506005830154905061221681612740565b61222360a0860182612248565b506006830154905061223481612726565b61224160c0860182611db3565b5050505050565b61225181612702565b82525050565b61226081612702565b82525050565b600061227182612003565b9150819050919050565b60006020820190506122906000830184611ce8565b92915050565b60006060820190506122ab6000830186611ce8565b6122b86020830185611ce8565b6122c56040830184612257565b949350505050565b60006040820190506122e26000830185611ce8565b6122ef6020830184612257565b9392505050565b600060208201905081810360008301526123108184611cf7565b905092915050565b600060208201905081810360008301526123328184611d55565b905092915050565b600060208201905061234f6000830184611dc2565b92915050565b6000602082019050818103600083015261236e81611dd1565b9050919050565b6000602082019050818103600083015261238e81611e11565b9050919050565b600060208201905081810360008301526123ae81611e51565b9050919050565b600060208201905081810360008301526123ce81611eb7565b9050919050565b600060208201905081810360008301526123ee81611ef7565b9050919050565b6000602082019050818103600083015261240e81611f5d565b9050919050565b6000602082019050818103600083015261242e81611fc3565b9050919050565b6000602082019050818103600083015261244e8161201d565b9050919050565b6000602082019050818103600083015261246e8161205d565b9050919050565b6000602082019050818103600083015261248e8161209d565b9050919050565b600060e0820190506124aa600083018461216b565b92915050565b60006020820190506124c56000830184612257565b92915050565b600060e0820190506124e0600083018a612257565b6124ed6020830189611ce8565b6124fa6040830188611ce8565b6125076060830187612257565b6125146080830186612257565b61252160a0830185612257565b61252e60c0830184611dc2565b98975050505050505050565b600060408201905061254f6000830185612257565b61255c6020830184612257565b9392505050565b6000819050602082019050919050565b6000819050602082019050919050565b600081519050919050565b600081519050919050565b6000602082019050919050565b6000602082019050919050565b600082825260208201905092915050565b600082825260208201905092915050565b600081905092915050565b600082825260208201905092915050565b60006125fc82612702565b915061260783612702565b9250827fffffffffffffffffffffffffffffffffffffffffffffffffffffffffffffffff0382111561263c5761263b6127a3565b5b828201905092915050565b600061265282612702565b915061265d83612702565b9250828210156126705761266f6127a3565b5b828203905092915050565b600073ffffffffffffffffffffffffffffffffffffffff82169050919050565b600060ff82169050919050565b6000819050919050565b60006126bd826126e2565b9050919050565b60006126cf826126e2565b9050919050565b60008115159050919050565b600073ffffffffffffffffffffffffffffffffffffffff82169050919050565b6000819050919050565b600061271f61271a836127d2565b61267b565b9050919050565b6000612739612734836127d2565b61269b565b9050919050565b600061275361274e836127d2565b6126a8565b9050919050565b600061276582612702565b91507fffffffffffffffffffffffffffffffffffffffffffffffffffffffffffffffff821415612798576127976127a3565b5b600182019050919050565b7f4e487b7100000000000000000000000000000000000000000000000000000000600052601160045260246000fd5b60008160001c9050919050565b6127e8816126b2565b81146127f357600080fd5b50565b6127ff816126c4565b811461280a57600080fd5b50565b612816816126d6565b811461282157600080fd5b50565b61282d81612702565b811461283857600080fd5b5056fea26469706673582212200f906992b204b9114923e3da254945e847bebc3d3cfa65edf09690e800f866fa64736f6c63430008000033",
  "immutableReferences": {
    "1446": [
      {
        "length": 32,
        "start": 1369
      },
      {
        "length": 32,
        "start": 4937
      }
    ]
  },
  "source": "\r\n/** \r\n *  SourceUnit: c:\\Users\\Shivam Agrawal\\Desktop\\MS Wallet\\contracts\\Wallet.sol\r\n*/\r\n            \r\n////// SPDX-License-Identifier-FLATTEN-SUPPRESS-WARNING: MIT\r\n// OpenZeppelin Contracts v4.4.1 (utils/Address.sol)\r\n\r\npragma solidity ^0.8.0;\r\n\r\n/**\r\n * @dev Collection of functions related to the address type\r\n */\r\nlibrary Address {\r\n    /**\r\n     * @dev Returns true if `account` is a contract.\r\n     *\r\n     * [////IMPORTANT]\r\n     * ====\r\n     * It is unsafe to assume that an address for which this function returns\r\n     * false is an externally-owned account (EOA) and not a contract.\r\n     *\r\n     * Among others, `isContract` will return false for the following\r\n     * types of addresses:\r\n     *\r\n     *  - an externally-owned account\r\n     *  - a contract in construction\r\n     *  - an address where a contract will be created\r\n     *  - an address where a contract lived, but was destroyed\r\n     * ====\r\n     */\r\n    function isContract(address account) internal view returns (bool) {\r\n        // This method relies on extcodesize, which returns 0 for contracts in\r\n        // construction, since the code is only stored at the end of the\r\n        // constructor execution.\r\n\r\n        uint256 size;\r\n        assembly {\r\n            size := extcodesize(account)\r\n        }\r\n        return size > 0;\r\n    }\r\n\r\n    /**\r\n     * @dev Replacement for Solidity's `transfer`: sends `amount` wei to\r\n     * `recipient`, forwarding all available gas and reverting on errors.\r\n     *\r\n     * https://eips.ethereum.org/EIPS/eip-1884[EIP1884] increases the gas cost\r\n     * of certain opcodes, possibly making contracts go over the 2300 gas limit\r\n     * imposed by `transfer`, making them unable to receive funds via\r\n     * `transfer`. {sendValue} removes this limitation.\r\n     *\r\n     * https://diligence.consensys.net/posts/2019/09/stop-using-soliditys-transfer-now/[Learn more].\r\n     *\r\n     * ////IMPORTANT: because control is transferred to `recipient`, care must be\r\n     * taken to not create reentrancy vulnerabilities. Consider using\r\n     * {ReentrancyGuard} or the\r\n     * https://solidity.readthedocs.io/en/v0.5.11/security-considerations.html#use-the-checks-effects-interactions-pattern[checks-effects-interactions pattern].\r\n     */\r\n    function sendValue(address payable recipient, uint256 amount) internal {\r\n        require(address(this).balance >= amount, \"Address: insufficient balance\");\r\n\r\n        (bool success, ) = recipient.call{value: amount}(\"\");\r\n        require(success, \"Address: unable to send value, recipient may have reverted\");\r\n    }\r\n\r\n    /**\r\n     * @dev Performs a Solidity function call using a low level `call`. A\r\n     * plain `call` is an unsafe replacement for a function call: use this\r\n     * function instead.\r\n     *\r\n     * If `target` reverts with a revert reason, it is bubbled up by this\r\n     * function (like regular Solidity function calls).\r\n     *\r\n     * Returns the raw returned data. To convert to the expected return value,\r\n     * use https://solidity.readthedocs.io/en/latest/units-and-global-variables.html?highlight=abi.decode#abi-encoding-and-decoding-functions[`abi.decode`].\r\n     *\r\n     * Requirements:\r\n     *\r\n     * - `target` must be a contract.\r\n     * - calling `target` with `data` must not revert.\r\n     *\r\n     * _Available since v3.1._\r\n     */\r\n    function functionCall(address target, bytes memory data) internal returns (bytes memory) {\r\n        return functionCall(target, data, \"Address: low-level call failed\");\r\n    }\r\n\r\n    /**\r\n     * @dev Same as {xref-Address-functionCall-address-bytes-}[`functionCall`], but with\r\n     * `errorMessage` as a fallback revert reason when `target` reverts.\r\n     *\r\n     * _Available since v3.1._\r\n     */\r\n    function functionCall(\r\n        address target,\r\n        bytes memory data,\r\n        string memory errorMessage\r\n    ) internal returns (bytes memory) {\r\n        return functionCallWithValue(target, data, 0, errorMessage);\r\n    }\r\n\r\n    /**\r\n     * @dev Same as {xref-Address-functionCall-address-bytes-}[`functionCall`],\r\n     * but also transferring `value` wei to `target`.\r\n     *\r\n     * Requirements:\r\n     *\r\n     * - the calling contract must have an ETH balance of at least `value`.\r\n     * - the called Solidity function must be `payable`.\r\n     *\r\n     * _Available since v3.1._\r\n     */\r\n    function functionCallWithValue(\r\n        address target,\r\n        bytes memory data,\r\n        uint256 value\r\n    ) internal returns (bytes memory) {\r\n        return functionCallWithValue(target, data, value, \"Address: low-level call with value failed\");\r\n    }\r\n\r\n    /**\r\n     * @dev Same as {xref-Address-functionCallWithValue-address-bytes-uint256-}[`functionCallWithValue`], but\r\n     * with `errorMessage` as a fallback revert reason when `target` reverts.\r\n     *\r\n     * _Available since v3.1._\r\n     */\r\n    function functionCallWithValue(\r\n        address target,\r\n        bytes memory data,\r\n        uint256 value,\r\n        string memory errorMessage\r\n    ) internal returns (bytes memory) {\r\n        require(address(this).balance >= value, \"Address: insufficient balance for call\");\r\n        require(isContract(target), \"Address: call to non-contract\");\r\n\r\n        (bool success, bytes memory returndata) = target.call{value: value}(data);\r\n        return verifyCallResult(success, returndata, errorMessage);\r\n    }\r\n\r\n    /**\r\n     * @dev Same as {xref-Address-functionCall-address-bytes-}[`functionCall`],\r\n     * but performing a static call.\r\n     *\r\n     * _Available since v3.3._\r\n     */\r\n    function functionStaticCall(address target, bytes memory data) internal view returns (bytes memory) {\r\n        return functionStaticCall(target, data, \"Address: low-level static call failed\");\r\n    }\r\n\r\n    /**\r\n     * @dev Same as {xref-Address-functionCall-address-bytes-string-}[`functionCall`],\r\n     * but performing a static call.\r\n     *\r\n     * _Available since v3.3._\r\n     */\r\n    function functionStaticCall(\r\n        address target,\r\n        bytes memory data,\r\n        string memory errorMessage\r\n    ) internal view returns (bytes memory) {\r\n        require(isContract(target), \"Address: static call to non-contract\");\r\n\r\n        (bool success, bytes memory returndata) = target.staticcall(data);\r\n        return verifyCallResult(success, returndata, errorMessage);\r\n    }\r\n\r\n    /**\r\n     * @dev Same as {xref-Address-functionCall-address-bytes-}[`functionCall`],\r\n     * but performing a delegate call.\r\n     *\r\n     * _Available since v3.4._\r\n     */\r\n    function functionDelegateCall(address target, bytes memory data) internal returns (bytes memory) {\r\n        return functionDelegateCall(target, data, \"Address: low-level delegate call failed\");\r\n    }\r\n\r\n    /**\r\n     * @dev Same as {xref-Address-functionCall-address-bytes-string-}[`functionCall`],\r\n     * but performing a delegate call.\r\n     *\r\n     * _Available since v3.4._\r\n     */\r\n    function functionDelegateCall(\r\n        address target,\r\n        bytes memory data,\r\n        string memory errorMessage\r\n    ) internal returns (bytes memory) {\r\n        require(isContract(target), \"Address: delegate call to non-contract\");\r\n\r\n        (bool success, bytes memory returndata) = target.delegatecall(data);\r\n        return verifyCallResult(success, returndata, errorMessage);\r\n    }\r\n\r\n    /**\r\n     * @dev Tool to verifies that a low level call was successful, and revert if it wasn't, either by bubbling the\r\n     * revert reason using the provided one.\r\n     *\r\n     * _Available since v4.3._\r\n     */\r\n    function verifyCallResult(\r\n        bool success,\r\n        bytes memory returndata,\r\n        string memory errorMessage\r\n    ) internal pure returns (bytes memory) {\r\n        if (success) {\r\n            return returndata;\r\n        } else {\r\n            // Look for revert reason and bubble it up if present\r\n            if (returndata.length > 0) {\r\n                // The easiest way to bubble the revert reason is using memory via assembly\r\n\r\n                assembly {\r\n                    let returndata_size := mload(returndata)\r\n                    revert(add(32, returndata), returndata_size)\r\n                }\r\n            } else {\r\n                revert(errorMessage);\r\n            }\r\n        }\r\n    }\r\n}\r\n\r\n\r\n\r\n\r\n/** \r\n *  SourceUnit: c:\\Users\\Shivam Agrawal\\Desktop\\MS Wallet\\contracts\\Wallet.sol\r\n*/\r\n            \r\n////// SPDX-License-Identifier-FLATTEN-SUPPRESS-WARNING: MIT\r\n// OpenZeppelin Contracts v4.4.1 (utils/math/SafeMath.sol)\r\n\r\npragma solidity ^0.8.0;\r\n\r\n// CAUTION\r\n// This version of SafeMath should only be used with Solidity 0.8 or later,\r\n// because it relies on the compiler's built in overflow checks.\r\n\r\n/**\r\n * @dev Wrappers over Solidity's arithmetic operations.\r\n *\r\n * NOTE: `SafeMath` is generally not needed starting with Solidity 0.8, since the compiler\r\n * now has built in overflow checking.\r\n */\r\nlibrary SafeMath {\r\n    /**\r\n     * @dev Returns the addition of two unsigned integers, with an overflow flag.\r\n     *\r\n     * _Available since v3.4._\r\n     */\r\n    function tryAdd(uint256 a, uint256 b) internal pure returns (bool, uint256) {\r\n        unchecked {\r\n            uint256 c = a + b;\r\n            if (c < a) return (false, 0);\r\n            return (true, c);\r\n        }\r\n    }\r\n\r\n    /**\r\n     * @dev Returns the substraction of two unsigned integers, with an overflow flag.\r\n     *\r\n     * _Available since v3.4._\r\n     */\r\n    function trySub(uint256 a, uint256 b) internal pure returns (bool, uint256) {\r\n        unchecked {\r\n            if (b > a) return (false, 0);\r\n            return (true, a - b);\r\n        }\r\n    }\r\n\r\n    /**\r\n     * @dev Returns the multiplication of two unsigned integers, with an overflow flag.\r\n     *\r\n     * _Available since v3.4._\r\n     */\r\n    function tryMul(uint256 a, uint256 b) internal pure returns (bool, uint256) {\r\n        unchecked {\r\n            // Gas optimization: this is cheaper than requiring 'a' not being zero, but the\r\n            // benefit is lost if 'b' is also tested.\r\n            // See: https://github.com/OpenZeppelin/openzeppelin-contracts/pull/522\r\n            if (a == 0) return (true, 0);\r\n            uint256 c = a * b;\r\n            if (c / a != b) return (false, 0);\r\n            return (true, c);\r\n        }\r\n    }\r\n\r\n    /**\r\n     * @dev Returns the division of two unsigned integers, with a division by zero flag.\r\n     *\r\n     * _Available since v3.4._\r\n     */\r\n    function tryDiv(uint256 a, uint256 b) internal pure returns (bool, uint256) {\r\n        unchecked {\r\n            if (b == 0) return (false, 0);\r\n            return (true, a / b);\r\n        }\r\n    }\r\n\r\n    /**\r\n     * @dev Returns the remainder of dividing two unsigned integers, with a division by zero flag.\r\n     *\r\n     * _Available since v3.4._\r\n     */\r\n    function tryMod(uint256 a, uint256 b) internal pure returns (bool, uint256) {\r\n        unchecked {\r\n            if (b == 0) return (false, 0);\r\n            return (true, a % b);\r\n        }\r\n    }\r\n\r\n    /**\r\n     * @dev Returns the addition of two unsigned integers, reverting on\r\n     * overflow.\r\n     *\r\n     * Counterpart to Solidity's `+` operator.\r\n     *\r\n     * Requirements:\r\n     *\r\n     * - Addition cannot overflow.\r\n     */\r\n    function add(uint256 a, uint256 b) internal pure returns (uint256) {\r\n        return a + b;\r\n    }\r\n\r\n    /**\r\n     * @dev Returns the subtraction of two unsigned integers, reverting on\r\n     * overflow (when the result is negative).\r\n     *\r\n     * Counterpart to Solidity's `-` operator.\r\n     *\r\n     * Requirements:\r\n     *\r\n     * - Subtraction cannot overflow.\r\n     */\r\n    function sub(uint256 a, uint256 b) internal pure returns (uint256) {\r\n        return a - b;\r\n    }\r\n\r\n    /**\r\n     * @dev Returns the multiplication of two unsigned integers, reverting on\r\n     * overflow.\r\n     *\r\n     * Counterpart to Solidity's `*` operator.\r\n     *\r\n     * Requirements:\r\n     *\r\n     * - Multiplication cannot overflow.\r\n     */\r\n    function mul(uint256 a, uint256 b) internal pure returns (uint256) {\r\n        return a * b;\r\n    }\r\n\r\n    /**\r\n     * @dev Returns the integer division of two unsigned integers, reverting on\r\n     * division by zero. The result is rounded towards zero.\r\n     *\r\n     * Counterpart to Solidity's `/` operator.\r\n     *\r\n     * Requirements:\r\n     *\r\n     * - The divisor cannot be zero.\r\n     */\r\n    function div(uint256 a, uint256 b) internal pure returns (uint256) {\r\n        return a / b;\r\n    }\r\n\r\n    /**\r\n     * @dev Returns the remainder of dividing two unsigned integers. (unsigned integer modulo),\r\n     * reverting when dividing by zero.\r\n     *\r\n     * Counterpart to Solidity's `%` operator. This function uses a `revert`\r\n     * opcode (which leaves remaining gas untouched) while Solidity uses an\r\n     * invalid opcode to revert (consuming all remaining gas).\r\n     *\r\n     * Requirements:\r\n     *\r\n     * - The divisor cannot be zero.\r\n     */\r\n    function mod(uint256 a, uint256 b) internal pure returns (uint256) {\r\n        return a % b;\r\n    }\r\n\r\n    /**\r\n     * @dev Returns the subtraction of two unsigned integers, reverting with custom message on\r\n     * overflow (when the result is negative).\r\n     *\r\n     * CAUTION: This function is deprecated because it requires allocating memory for the error\r\n     * message unnecessarily. For custom revert reasons use {trySub}.\r\n     *\r\n     * Counterpart to Solidity's `-` operator.\r\n     *\r\n     * Requirements:\r\n     *\r\n     * - Subtraction cannot overflow.\r\n     */\r\n    function sub(\r\n        uint256 a,\r\n        uint256 b,\r\n        string memory errorMessage\r\n    ) internal pure returns (uint256) {\r\n        unchecked {\r\n            require(b <= a, errorMessage);\r\n            return a - b;\r\n        }\r\n    }\r\n\r\n    /**\r\n     * @dev Returns the integer division of two unsigned integers, reverting with custom message on\r\n     * division by zero. The result is rounded towards zero.\r\n     *\r\n     * Counterpart to Solidity's `/` operator. Note: this function uses a\r\n     * `revert` opcode (which leaves remaining gas untouched) while Solidity\r\n     * uses an invalid opcode to revert (consuming all remaining gas).\r\n     *\r\n     * Requirements:\r\n     *\r\n     * - The divisor cannot be zero.\r\n     */\r\n    function div(\r\n        uint256 a,\r\n        uint256 b,\r\n        string memory errorMessage\r\n    ) internal pure returns (uint256) {\r\n        unchecked {\r\n            require(b > 0, errorMessage);\r\n            return a / b;\r\n        }\r\n    }\r\n\r\n    /**\r\n     * @dev Returns the remainder of dividing two unsigned integers. (unsigned integer modulo),\r\n     * reverting with custom message when dividing by zero.\r\n     *\r\n     * CAUTION: This function is deprecated because it requires allocating memory for the error\r\n     * message unnecessarily. For custom revert reasons use {tryMod}.\r\n     *\r\n     * Counterpart to Solidity's `%` operator. This function uses a `revert`\r\n     * opcode (which leaves remaining gas untouched) while Solidity uses an\r\n     * invalid opcode to revert (consuming all remaining gas).\r\n     *\r\n     * Requirements:\r\n     *\r\n     * - The divisor cannot be zero.\r\n     */\r\n    function mod(\r\n        uint256 a,\r\n        uint256 b,\r\n        string memory errorMessage\r\n    ) internal pure returns (uint256) {\r\n        unchecked {\r\n            require(b > 0, errorMessage);\r\n            return a % b;\r\n        }\r\n    }\r\n}\r\n\r\n\r\n\r\n\r\n/** \r\n *  SourceUnit: c:\\Users\\Shivam Agrawal\\Desktop\\MS Wallet\\contracts\\Wallet.sol\r\n*/\r\n            \r\n////// SPDX-License-Identifier-FLATTEN-SUPPRESS-WARNING: MIT\r\n// OpenZeppelin Contracts v4.4.1 (token/ERC20/IERC20.sol)\r\n\r\npragma solidity ^0.8.0;\r\n\r\n/**\r\n * @dev Interface of the ERC20 standard as defined in the EIP.\r\n */\r\ninterface IERC20 {\r\n    /**\r\n     * @dev Returns the amount of tokens in existence.\r\n     */\r\n    function totalSupply() external view returns (uint256);\r\n\r\n    /**\r\n     * @dev Returns the amount of tokens owned by `account`.\r\n     */\r\n    function balanceOf(address account) external view returns (uint256);\r\n\r\n    /**\r\n     * @dev Moves `amount` tokens from the caller's account to `recipient`.\r\n     *\r\n     * Returns a boolean value indicating whether the operation succeeded.\r\n     *\r\n     * Emits a {Transfer} event.\r\n     */\r\n    function transfer(address recipient, uint256 amount) external returns (bool);\r\n\r\n    /**\r\n     * @dev Returns the remaining number of tokens that `spender` will be\r\n     * allowed to spend on behalf of `owner` through {transferFrom}. This is\r\n     * zero by default.\r\n     *\r\n     * This value changes when {approve} or {transferFrom} are called.\r\n     */\r\n    function allowance(address owner, address spender) external view returns (uint256);\r\n\r\n    /**\r\n     * @dev Sets `amount` as the allowance of `spender` over the caller's tokens.\r\n     *\r\n     * Returns a boolean value indicating whether the operation succeeded.\r\n     *\r\n     * ////IMPORTANT: Beware that changing an allowance with this method brings the risk\r\n     * that someone may use both the old and the new allowance by unfortunate\r\n     * transaction ordering. One possible solution to mitigate this race\r\n     * condition is to first reduce the spender's allowance to 0 and set the\r\n     * desired value afterwards:\r\n     * https://github.com/ethereum/EIPs/issues/20#issuecomment-263524729\r\n     *\r\n     * Emits an {Approval} event.\r\n     */\r\n    function approve(address spender, uint256 amount) external returns (bool);\r\n\r\n    /**\r\n     * @dev Moves `amount` tokens from `sender` to `recipient` using the\r\n     * allowance mechanism. `amount` is then deducted from the caller's\r\n     * allowance.\r\n     *\r\n     * Returns a boolean value indicating whether the operation succeeded.\r\n     *\r\n     * Emits a {Transfer} event.\r\n     */\r\n    function transferFrom(\r\n        address sender,\r\n        address recipient,\r\n        uint256 amount\r\n    ) external returns (bool);\r\n\r\n    /**\r\n     * @dev Emitted when `value` tokens are moved from one account (`from`) to\r\n     * another (`to`).\r\n     *\r\n     * Note that `value` may be zero.\r\n     */\r\n    event Transfer(address indexed from, address indexed to, uint256 value);\r\n\r\n    /**\r\n     * @dev Emitted when the allowance of a `spender` for an `owner` is set by\r\n     * a call to {approve}. `value` is the new allowance.\r\n     */\r\n    event Approval(address indexed owner, address indexed spender, uint256 value);\r\n}\r\n\r\n\r\npragma solidity ^0.8.0;\r\ncontract wallet{\r\n    using SafeMath for uint;\r\n    using Address for address;\r\n    \r\n    struct Transfer{\r\n        uint id;\r\n        address token; //For ETH, give address of any dead wallet\r\n        address to;\r\n        uint amount;\r\n        uint noOfApprovals;\r\n        uint date;\r\n        bool sent;\r\n    }\r\n\r\n    //Address of a dead wallet to pass for creating Eth transfer\r\n    address constant dead = 0x000000000000000000000000000000000000dEaD;\r\n\r\n    //Array of transfers\r\n    Transfer[] public transfers;\r\n\r\n    //Approvers\r\n    address[] public approvers;\r\n\r\n    //Getting if an approver has approved a transfer(by ID)\r\n    mapping(address => mapping(uint => bool)) public approved;\r\n\r\n    //Min no of approvals required for a transfer to succeed\r\n    uint public immutable quorum;\r\n\r\n\r\n    constructor(uint _quorum,address[] memory _approvers) public{\r\n        require(_quorum <= _approvers.length, \"Quorum should be less than no of approvers\");\r\n        approvers = _approvers;\r\n        quorum = _quorum;\r\n    }\r\n\r\n    //A receive function to get Ether into the contract\r\n    receive() external payable{\r\n        emit EtherDeposit(msg.sender, msg.value, block.timestamp);\r\n    }\r\n\r\n    //Deposit function to deposit other tokens\r\n    function deposit(address token, uint amount) external returns (bool){\r\n        uint beforeDeposit = getTokenBalance(token);\r\n        require(\r\n            IERC20(token).transferFrom(msg.sender, address(this), amount), \r\n            \"Transfer failed\"\r\n        );\r\n        uint deposited = getTokenBalance(token).sub(beforeDeposit);\r\n        emit TokenDeposit(token, msg.sender, deposited, block.timestamp);\r\n        return true;\r\n    }\r\n\r\n    //Function to create Ether transfer\r\n    function createEthTransfer(\r\n        address payable to, \r\n        uint amount) \r\n        external \r\n        onlyApprover{\r\n            require(\r\n                address(this).balance >= amount,\r\n                \"Insufficient Eth balance in the contract\"\r\n            );\r\n            require(\r\n                to != address(0),\r\n                \"address(0) is not allowed\"\r\n            );\r\n            createTransfer(dead, to, amount);\r\n        }\r\n\r\n    //Function to create Token transfers\r\n    function createTokenTransfer(\r\n        address token, \r\n        address payable to, \r\n        uint amount) \r\n        external \r\n        onlyApprover{\r\n            require(\r\n                IERC20(token).balanceOf(address(this)) >= amount,\r\n                \"Insufficient amount of tokens in the wallet\"\r\n            );\r\n            require(\r\n                to != address(0),\r\n                \"address(0) is not allowed\"\r\n            );\r\n            createTransfer(token, to, amount);\r\n        }\r\n\r\n    //Private function to create transfer\r\n    function createTransfer(\r\n        address token, \r\n        address payable to ,\r\n        uint amount) \r\n        private{\r\n            transfers.push(Transfer(\r\n                            transfers.length,\r\n                            token,\r\n                            to,\r\n                            amount,\r\n                            1,\r\n                            block.timestamp,\r\n                            false\r\n                        )\r\n                );\r\n            approved[msg.sender][(transfers.length).sub(1)] = true;\r\n            if(token == dead) {\r\n                emit EthTransferCreated(transfers[(transfers.length).sub(1)]);\r\n            }  \r\n            else{\r\n                emit TokenTransferCreated(transfers[(transfers.length).sub(1)]);\r\n            }\r\n        }\r\n\r\n    //function to approve transfers\r\n    function approveTransfer(uint id) external onlyApprover{\r\n        //Checking if transfer exists\r\n        require(\r\n            transfers[id].to != address(0),\r\n            \"Transfer doesn't exist\"\r\n        );\r\n        //Checking if approver already approved\r\n        require(\r\n            !approved[msg.sender][id],\r\n            \"Already approved by you\"\r\n        );\r\n        //Checking if transfer is already completed\r\n        require(\r\n            !transfers[id].sent,\r\n            \"Transfer already sent\"\r\n        );\r\n        _approveTransfer(id);\r\n    }\r\n\r\n    //Private function to approve transfers\r\n    function _approveTransfer(uint id) private{\r\n        approved[msg.sender][id] = true;\r\n        transfers[id].noOfApprovals = transfers[id].noOfApprovals.add(1);\r\n        if(transfers[id].noOfApprovals >= quorum){\r\n            transfers[id].sent = true;\r\n            if(transfers[id].token == dead){\r\n                transferEth(id);\r\n            }\r\n            else {\r\n                transferToken(id);\r\n            }\r\n        }\r\n    }\r\n\r\n    //Function to transfer Eth\r\n    function transferEth(uint id) private{\r\n        (bool s, ) = (transfers[id].to).call{value: transfers[id].amount}(\"\");\r\n        require(s, \"Eth transfer failed\");\r\n        emit EthTransfer(\r\n            id, \r\n            transfers[id].to, \r\n            transfers[id].amount, \r\n            block.timestamp\r\n            );\r\n    }\r\n\r\n    //Function to transfer Token\r\n    function transferToken(uint id) private{\r\n        require(\r\n            IERC20(transfers[id].token).transfer(\r\n                transfers[id].to, \r\n                transfers[id].amount\r\n            ),\r\n            \"Token transfer failure\"\r\n        );\r\n        emit TokenTransfer(\r\n            id, \r\n            transfers[id].token, \r\n            transfers[id].to, \r\n            transfers[id].amount, \r\n            block.timestamp\r\n            );\r\n    }\r\n\r\n\r\n    \r\n    //////////////////////////////////////////////////////////\r\n    ////////////          Getters         ////////////////////\r\n    //////////////////////////////////////////////////////////\r\n    function getEthBalance() public view returns(uint){\r\n        return address(this).balance;\r\n    }\r\n\r\n    function getTokenBalance(address token) public view returns(uint){\r\n        return IERC20(token).balanceOf(address(this));\r\n    }\r\n    \r\n\r\n    function getTransfers() public view returns(Transfer[] memory){\r\n        return transfers;\r\n    }\r\n\r\n    function getApprovers() public view returns(address[] memory){\r\n        return approvers;\r\n    }\r\n\r\n    function isApprover(address account) public view returns(bool){\r\n        for(uint i=0; i<approvers.length; i++){\r\n            if(account == approvers[i]){\r\n                return true;\r\n            }\r\n        }\r\n        return false;\r\n    }\r\n    //////////////////////////////////////////////////////////\r\n    ////////////          Modifiers         //////////////////\r\n    //////////////////////////////////////////////////////////\r\n    modifier onlyApprover{\r\n        require(\r\n            isApprover(msg.sender) == true, \r\n            \"Only approver can call this function\"\r\n            );\r\n        _;\r\n    }\r\n\r\n    //////////////////////////////////////////////////////////\r\n    ////////////          Events         /////////////////////\r\n    //////////////////////////////////////////////////////////\r\n    event EtherDeposit(address indexed sender, uint value, uint time);\r\n    event TokenDeposit(\r\n        address indexed token, \r\n        address indexed sender, \r\n        uint value, \r\n        uint time\r\n        );\r\n    event EthTransferCreated(Transfer transfer);\r\n    event TokenTransferCreated(Transfer transfer);\r\n    event EthTransfer(\r\n        uint indexed id, \r\n        address indexed to, \r\n        uint amount, \r\n        uint date\r\n        );\r\n    event TokenTransfer(\r\n        uint indexed id, \r\n        address indexed token, \r\n        address indexed to, \r\n        uint amount, \r\n        uint date\r\n        );\r\n}\r\n",
  "sourcePath": "C:\\Users\\Shivam Agrawal\\Desktop\\MS Wallet\\contracts\\Wallet.sol",
  "compiler": {
    "name": "solc",
    "version": "0.8.0+commit.c7dfd78e.Emscripten.clang"
  },
  "schemaVersion": "3.4.3",
  "updatedAt": "2022-01-03T07:25:04.309Z",
  "networkType": "ethereum",
  "devdoc": {
    "kind": "dev",
    "methods": {},
    "version": 1
  },
  "userdoc": {
    "kind": "user",
    "methods": {},
    "version": 1
  }
}